{
  "transactions": [
    {
      "hash": "0x79c6b771e74c4a5ae99f852c9c7ab9f6d09ffc22df513fd877c6096c80da5d03",
      "transactionType": "CALL",
      "contractName": null,
      "contractAddress": "0x0414bb02c6b9eb781220dc207617bc6841fa463b",
      "function": "voteWithPermit2(address,bool,((address,uint256),uint256,uint256),(address,uint256),bytes)",
      "arguments": [
        "0xf315B9006C20913D6D8498BDf657E778d4Ddf2c4",
        "true",
        "((0xa9b1a94d8ddBa49193e50174D4f87ee108F5e4cD, 1000000000000000000), 1, 4359431218)",
        "(0x0414bB02C6B9EB781220Dc207617BC6841Fa463B, 1000000000000000000)",
        "0xe5ce5093a265a0e8a300af0ab536c91ff7531770fff9f4063f7bf23019373c3d14fd506d5227f3d5beba6ce3c537b5fcd05d718202d8123593dc1c5f5b9d96f01c"
      ],
      "transaction": {
        "from": "0x5992fe461f81c8e0affa95b831e50e9b3854ba0e",
        "to": "0x0414bb02c6b9eb781220dc207617bc6841fa463b",
        "gas": "0x19612",
        "value": "0x0",
        "input": "0x8debc55d000000000000000000000000f315b9006c20913d6d8498bdf657e778d4ddf2c40000000000000000000000000000000000000000000000000000000000000001000000000000000000000000a9b1a94d8ddba49193e50174d4f87ee108f5e4cd0000000000000000000000000000000000000000000000000de0b6b3a764000000000000000000000000000000000000000000000000000000000000000000010000000000000000000000000000000000000000000000000000000103d7a4320000000000000000000000000414bb02c6b9eb781220dc207617bc6841fa463b0000000000000000000000000000000000000000000000000de0b6b3a764000000000000000000000000000000000000000000000000000000000000000001200000000000000000000000000000000000000000000000000000000000000041e5ce5093a265a0e8a300af0ab536c91ff7531770fff9f4063f7bf23019373c3d14fd506d5227f3d5beba6ce3c537b5fcd05d718202d8123593dc1c5f5b9d96f01c00000000000000000000000000000000000000000000000000000000000000",
        "nonce": "0x4a9",
        "chainId": "0xa4b1"
      },
      "additionalContracts": [],
      "isFixedGasLimit": false
    }
  ],
  "receipts": [
    {
      "status": "0x1",
      "cumulativeGasUsed": "0xba97b",
      "logs": [
        {
          "address": "0xa9b1a94d8ddba49193e50174d4f87ee108f5e4cd",
          "topics": [
            "0xddf252ad1be2c89b69c2b068fc378daa952ba7f163c4a11628f55a4df523b3ef",
            "0x0000000000000000000000005992fe461f81c8e0affa95b831e50e9b3854ba0e",
            "0x0000000000000000000000000414bb02c6b9eb781220dc207617bc6841fa463b"
          ],
          "data": "0x0000000000000000000000000000000000000000000000000de0b6b3a7640000",
          "blockHash": "0x078b36d4b140ae743ad547bdd96844df77b1ea9b5885c18f9f418620bf7683ef",
          "blockNumber": "0x18e168e9",
          "transactionHash": "0x79c6b771e74c4a5ae99f852c9c7ab9f6d09ffc22df513fd877c6096c80da5d03",
          "transactionIndex": "0x4",
          "logIndex": "0xf",
          "removed": false
        },
        {
          "address": "0x0414bb02c6b9eb781220dc207617bc6841fa463b",
          "topics": [
            "0x1b3d7edb2e9c0b0e7c525b20aaaef0f5940d2ed71663c7d39266ecafac728859",
            "0x0000000000000000000000000000000000000000000000000000000000000000",
            "0x0000000000000000000000005992fe461f81c8e0affa95b831e50e9b3854ba0e",
            "0xf315b9006c20913d6d8498bdf657e778d4ddf2c4000000000000000000000001"
          ],
          "data": "0x0000000000000000000000005992fe461f81c8e0affa95b831e50e9b3854ba0e0000000000000000000000000000000000000000000000000de0b6b3a7640000",
          "blockHash": "0x078b36d4b140ae743ad547bdd96844df77b1ea9b5885c18f9f418620bf7683ef",
          "blockNumber": "0x18e168e9",
          "transactionHash": "0x79c6b771e74c4a5ae99f852c9c7ab9f6d09ffc22df513fd877c6096c80da5d03",
          "transactionIndex": "0x4",
          "logIndex": "0x10",
          "removed": false
        },
        {
          "address": "0x0414bb02c6b9eb781220dc207617bc6841fa463b",
          "topics": [
            "0xf01e0648b75d055c003bb115baaa99af91e34a86a5405eb8b96e451bcb1c79f0",
            "0x0000000000000000000000005992fe461f81c8e0affa95b831e50e9b3854ba0e",
            "0x000000000000000000000000f315b9006c20913d6d8498bdf657e778d4ddf2c4"
          ],
          "data": "0x0000000000000000000000000000000000000000000000000000000000000001",
          "blockHash": "0x078b36d4b140ae743ad547bdd96844df77b1ea9b5885c18f9f418620bf7683ef",
          "blockNumber": "0x18e168e9",
          "transactionHash": "0x79c6b771e74c4a5ae99f852c9c7ab9f6d09ffc22df513fd877c6096c80da5d03",
          "transactionIndex": "0x4",
          "logIndex": "0x11",
          "removed": false
        }
      ],
      "logsBloom": "0x00004000000200000000000000000000000000000002000000000000000000200000000000000000000000000000000000000002000000000000000000000000000000000002000000000008000005000000000000000000000800000000000000000000020000000000000000000800000000000000000000000010000000000000000800400000000000000000000000000000000000000000000000004000000000000000000000000200000028000000000000000000040000000000000400008082000000000000000000000000000000000000000010000000100020000000000000000000000002800000000000000000000000000000000004000000",
      "type": "0x2",
      "transactionHash": "0x79c6b771e74c4a5ae99f852c9c7ab9f6d09ffc22df513fd877c6096c80da5d03",
      "transactionIndex": "0x4",
      "blockHash": "0x078b36d4b140ae743ad547bdd96844df77b1ea9b5885c18f9f418620bf7683ef",
      "blockNumber": "0x18e168e9",
      "gasUsed": "0x134dc",
      "effectiveGasPrice": "0x989680",
      "from": "0x5992fe461f81c8e0affa95b831e50e9b3854ba0e",
      "to": "0x0414bb02c6b9eb781220dc207617bc6841fa463b",
      "contractAddress": null,
      "gasUsedForL1": "0x0",
      "l1BlockNumber": "0x1708cd3",
      "timeboosted": false
    }
  ],
  "libraries": [],
  "pending": [],
  "returns": {},
  "timestamp": 1767433455246,
  "chain": 42161,
  "commit": null
}