{
  "transactions": [
    {
      "hash": "0xbc39ad4e9ae5522a56c601ed395c3d17c328817166c127f7653d697fe11faa77",
      "transactionType": "CALL",
      "contractName": null,
      "contractAddress": "0x0414bb02c6b9eb781220dc207617bc6841fa463b",
      "function": "createPrediction(((address,uint96),(address,uint96),uint40,uint96,(address,uint96)[]))",
      "arguments": [
        "((0xa9b1a94d8ddBa49193e50174D4f87ee108F5e4cD, 1000000000000000000), (0xa9b1a94d8ddBa49193e50174D4f87ee108F5e4cD, 100), 1798007830, 0, [(0xa9b1a94d8ddBa49193e50174D4f87ee108F5e4cD, 1000000000000000000)])"
      ],
      "transaction": {
        "from": "0xf315b9006c20913d6d8498bdf657e778d4ddf2c4",
        "to": "0x0414bb02c6b9eb781220dc207617bc6841fa463b",
        "gas": "0x2c37d",
        "value": "0x0",
        "input": "0xc19b13aa0000000000000000000000000000000000000000000000000000000000000020000000000000000000000000a9b1a94d8ddba49193e50174d4f87ee108f5e4cd0000000000000000000000000000000000000000000000000de0b6b3a7640000000000000000000000000000a9b1a94d8ddba49193e50174d4f87ee108f5e4cd0000000000000000000000000000000000000000000000000000000000000064000000000000000000000000000000000000000000000000000000006b2b6c16000000000000000000000000000000000000000000000000000000000000000000000000000000000000000000000000000000000000000000000000000000e00000000000000000000000000000000000000000000000000000000000000001000000000000000000000000a9b1a94d8ddba49193e50174d4f87ee108f5e4cd0000000000000000000000000000000000000000000000000de0b6b3a7640000",
        "nonce": "0xe1",
        "chainId": "0xa4b1"
      },
      "additionalContracts": [],
      "isFixedGasLimit": false
    }
  ],
  "receipts": [
    {
      "status": "0x1",
      "cumulativeGasUsed": "0xcd0ee",
      "logs": [
        {
          "address": "0x0414bb02c6b9eb781220dc207617bc6841fa463b",
          "topics": [
            "0x49590a953e4f7ed634e3098ee5653ebc3623584f3677075fd182a1cdf75b1160",
            "0x000000000000000000000000f315b9006c20913d6d8498bdf657e778d4ddf2c4"
          ],
          "data": "0x000000000000000000000000000000000000000000000000000000006b2b6c16",
          "blockHash": "0x260c1bb62e543fa13a3889e78b997ee2bd1bfe7da92b1024e971b773d0fe02f1",
          "blockNumber": "0x18a6ad44",
          "transactionHash": "0xbc39ad4e9ae5522a56c601ed395c3d17c328817166c127f7653d697fe11faa77",
          "transactionIndex": "0x3",
          "logIndex": "0x18",
          "removed": false
        }
      ],
      "logsBloom": "0x00000000000200000000000000080000000000000000000000000000000000200000000000000000000000000000000000000000000000000000000000000000000000000000000000000000000000000000000000000000000000000000000000000000000000000000000000000000000000000000000000000000000000000000000000400000000000000000000000000000000000000000000000000000000000000000000000000000000008000000000000000000000000000000000000000080000000000000200000000000000000000000000000000000000000000000000000000000001000800000000000000000000000000000000000000000",
      "type": "0x2",
      "transactionHash": "0xbc39ad4e9ae5522a56c601ed395c3d17c328817166c127f7653d697fe11faa77",
      "transactionIndex": "0x3",
      "blockHash": "0x260c1bb62e543fa13a3889e78b997ee2bd1bfe7da92b1024e971b773d0fe02f1",
      "blockNumber": "0x18a6ad44",
      "gasUsed": "0x21bce",
      "effectiveGasPrice": "0x1259058",
      "from": "0xf315b9006c20913d6d8498bdf657e778d4ddf2c4",
      "to": "0x0414bb02c6b9eb781220dc207617bc6841fa463b",
      "contractAddress": null,
      "gasUsedForL1": "0x0",
      "l1BlockNumber": "0x16f5560",
      "timeboosted": false
    }
  ],
  "libraries": [],
  "pending": [],
  "returns": {},
  "timestamp": 1766471842340,
  "chain": 42161,
  "commit": null
}