{
  "transactions": [
    {
      "hash": "0xd3e3398c86b5889a3e46c5d24817002bbba78c7bf2426f27aad8b6e0655fd006",
      "transactionType": "CALL",
      "contractName": null,
      "contractAddress": "0xc0a672740b2b2da1cc8fa4befafcaf4901e42a42",
      "function": "voteWithPermit2(address,bool,((address,uint256),uint256,uint256),(address,uint256),bytes)",
      "arguments": [
        "0xf315B9006C20913D6D8498BDf657E778d4Ddf2c4",
        "true",
        "((0xa9b1a94d8ddBa49193e50174D4f87ee108F5e4cD, 1000000000000000000), 11, 4359431218)",
        "(0xC0A672740b2b2Da1CC8fA4BefaFcaF4901e42A42, 1000000000000000000)",
        "0xba57a47c4f6fe435758a7f8268b6b35612260ea4f1da4b5a08f8b7ec48e548f606a1ff8e29ea6148284cc050903db22fb17198f66a5de40279770ff38ad6ca251b"
      ],
      "transaction": {
        "from": "0x5992fe461f81c8e0affa95b831e50e9b3854ba0e",
        "to": "0xc0a672740b2b2da1cc8fa4befafcaf4901e42a42",
        "gas": "0x18620",
        "value": "0x0",
        "input": "0x8debc55d000000000000000000000000f315b9006c20913d6d8498bdf657e778d4ddf2c40000000000000000000000000000000000000000000000000000000000000001000000000000000000000000a9b1a94d8ddba49193e50174d4f87ee108f5e4cd0000000000000000000000000000000000000000000000000de0b6b3a7640000000000000000000000000000000000000000000000000000000000000000000b0000000000000000000000000000000000000000000000000000000103d7a432000000000000000000000000c0a672740b2b2da1cc8fa4befafcaf4901e42a420000000000000000000000000000000000000000000000000de0b6b3a764000000000000000000000000000000000000000000000000000000000000000001200000000000000000000000000000000000000000000000000000000000000041ba57a47c4f6fe435758a7f8268b6b35612260ea4f1da4b5a08f8b7ec48e548f606a1ff8e29ea6148284cc050903db22fb17198f66a5de40279770ff38ad6ca251b00000000000000000000000000000000000000000000000000000000000000",
        "nonce": "0x4bb",
        "chainId": "0xa4b1"
      },
      "additionalContracts": [],
      "isFixedGasLimit": false
    }
  ],
  "receipts": [
    {
      "status": "0x1",
      "cumulativeGasUsed": "0x244fe0",
      "logs": [
        {
          "address": "0xa9b1a94d8ddba49193e50174d4f87ee108f5e4cd",
          "topics": [
            "0xddf252ad1be2c89b69c2b068fc378daa952ba7f163c4a11628f55a4df523b3ef",
            "0x0000000000000000000000005992fe461f81c8e0affa95b831e50e9b3854ba0e",
            "0x000000000000000000000000c0a672740b2b2da1cc8fa4befafcaf4901e42a42"
          ],
          "data": "0x0000000000000000000000000000000000000000000000000de0b6b3a7640000",
          "blockHash": "0x76739ebcc5b9ff9aa55a88f4aaadda9d15bb16baeb7263fa642ec5c0c17756cf",
          "blockNumber": "0x18e7b5d7",
          "transactionHash": "0xd3e3398c86b5889a3e46c5d24817002bbba78c7bf2426f27aad8b6e0655fd006",
          "transactionIndex": "0x8",
          "logIndex": "0x29",
          "removed": false
        },
        {
          "address": "0xc0a672740b2b2da1cc8fa4befafcaf4901e42a42",
          "topics": [
            "0x1b3d7edb2e9c0b0e7c525b20aaaef0f5940d2ed71663c7d39266ecafac728859",
            "0x0000000000000000000000000000000000000000000000000000000000000000",
            "0x0000000000000000000000005992fe461f81c8e0affa95b831e50e9b3854ba0e",
            "0xf315b9006c20913d6d8498bdf657e778d4ddf2c4000000000000000000000001"
          ],
          "data": "0x0000000000000000000000005992fe461f81c8e0affa95b831e50e9b3854ba0e0000000000000000000000000000000000000000000000000de0b6b3a7640000",
          "blockHash": "0x76739ebcc5b9ff9aa55a88f4aaadda9d15bb16baeb7263fa642ec5c0c17756cf",
          "blockNumber": "0x18e7b5d7",
          "transactionHash": "0xd3e3398c86b5889a3e46c5d24817002bbba78c7bf2426f27aad8b6e0655fd006",
          "transactionIndex": "0x8",
          "logIndex": "0x2a",
          "removed": false
        },
        {
          "address": "0xc0a672740b2b2da1cc8fa4befafcaf4901e42a42",
          "topics": [
            "0xf01e0648b75d055c003bb115baaa99af91e34a86a5405eb8b96e451bcb1c79f0",
            "0x0000000000000000000000005992fe461f81c8e0affa95b831e50e9b3854ba0e",
            "0x000000000000000000000000f315b9006c20913d6d8498bdf657e778d4ddf2c4"
          ],
          "data": "0x0000000000000000000000000000000000000000000000000000000000000001",
          "blockHash": "0x76739ebcc5b9ff9aa55a88f4aaadda9d15bb16baeb7263fa642ec5c0c17756cf",
          "blockNumber": "0x18e7b5d7",
          "transactionHash": "0xd3e3398c86b5889a3e46c5d24817002bbba78c7bf2426f27aad8b6e0655fd006",
          "transactionIndex": "0x8",
          "logIndex": "0x2b",
          "removed": false
        }
      ],
      "logsBloom": "0x00004000000200000000000000000000040000000002000000000000000000000000000000000000000040000000000000000002000000000000000000000000000000000002010000000008000004000000000000000000000800000000000000000000020000000000000000000800000000000000000000000010000000000000000800400000800000000000000000000080000002000000000000004000000000000000000000000000000020000000000000000000040000000000000400008082000000000000000000000000000000000000000010000000000020000000000000000000000002000000000000000000000000000000000004000000",
      "type": "0x2",
      "transactionHash": "0xd3e3398c86b5889a3e46c5d24817002bbba78c7bf2426f27aad8b6e0655fd006",
      "transactionIndex": "0x8",
      "blockHash": "0x76739ebcc5b9ff9aa55a88f4aaadda9d15bb16baeb7263fa642ec5c0c17756cf",
      "blockNumber": "0x18e7b5d7",
      "gasUsed": "0x128a5",
      "effectiveGasPrice": "0x989680",
      "from": "0x5992fe461f81c8e0affa95b831e50e9b3854ba0e",
      "to": "0xc0a672740b2b2da1cc8fa4befafcaf4901e42a42",
      "contractAddress": null,
      "gasUsedForL1": "0x0",
      "l1BlockNumber": "0x170ae52",
      "timeboosted": false
    }
  ],
  "libraries": [],
  "pending": [],
  "returns": {},
  "timestamp": 1767536646330,
  "chain": 42161,
  "commit": "84fadc7"
}