{
  "transactions": [
    {
      "hash": "0x2d4394e8d2caec0c15231bb8deb154ce93a51152dbdfc13ae68f1eb4af9f813f",
      "transactionType": "CALL",
      "contractName": null,
      "contractAddress": "0x0414bb02c6b9eb781220dc207617bc6841fa463b",
      "function": "voteWithPermit2(address,bool,((address,uint256),uint256,uint256),(address,uint256),bytes)",
      "arguments": [
        "0xf315B9006C20913D6D8498BDf657E778d4Ddf2c4",
        "true",
        "((0xa9b1a94d8ddBa49193e50174D4f87ee108F5e4cD, 1000000000000000000), 3, 4359431218)",
        "(0x0414bB02C6B9EB781220Dc207617BC6841Fa463B, 1000000000000000000)",
        "0x251941bd447696ca1b7d289739e4057c4098c68b8ed1c07b472d9f415111c2e876e5e29ac7cc72761b2cab8d6b3dad5f620c57e923706a5087b2d9fb5711587b1b"
      ],
      "transaction": {
        "from": "0x5992fe461f81c8e0affa95b831e50e9b3854ba0e",
        "to": "0x0414bb02c6b9eb781220dc207617bc6841fa463b",
        "gas": "0x19622",
        "value": "0x0",
        "input": "0x8debc55d000000000000000000000000f315b9006c20913d6d8498bdf657e778d4ddf2c40000000000000000000000000000000000000000000000000000000000000001000000000000000000000000a9b1a94d8ddba49193e50174d4f87ee108f5e4cd0000000000000000000000000000000000000000000000000de0b6b3a764000000000000000000000000000000000000000000000000000000000000000000030000000000000000000000000000000000000000000000000000000103d7a4320000000000000000000000000414bb02c6b9eb781220dc207617bc6841fa463b0000000000000000000000000000000000000000000000000de0b6b3a764000000000000000000000000000000000000000000000000000000000000000001200000000000000000000000000000000000000000000000000000000000000041251941bd447696ca1b7d289739e4057c4098c68b8ed1c07b472d9f415111c2e876e5e29ac7cc72761b2cab8d6b3dad5f620c57e923706a5087b2d9fb5711587b1b00000000000000000000000000000000000000000000000000000000000000",
        "nonce": "0x4ab",
        "chainId": "0xa4b1"
      },
      "additionalContracts": [],
      "isFixedGasLimit": false
    }
  ],
  "receipts": [
    {
      "status": "0x1",
      "cumulativeGasUsed": "0x9ca76",
      "logs": [
        {
          "address": "0xa9b1a94d8ddba49193e50174d4f87ee108f5e4cd",
          "topics": [
            "0xddf252ad1be2c89b69c2b068fc378daa952ba7f163c4a11628f55a4df523b3ef",
            "0x0000000000000000000000005992fe461f81c8e0affa95b831e50e9b3854ba0e",
            "0x0000000000000000000000000414bb02c6b9eb781220dc207617bc6841fa463b"
          ],
          "data": "0x0000000000000000000000000000000000000000000000000de0b6b3a7640000",
          "blockHash": "0x0455b1007b58bfa189b1137378d3541aa742067d6f5cd0534bcd8e9cf40608ad",
          "blockNumber": "0x18e177a4",
          "transactionHash": "0x2d4394e8d2caec0c15231bb8deb154ce93a51152dbdfc13ae68f1eb4af9f813f",
          "transactionIndex": "0x4",
          "logIndex": "0x7",
          "removed": false
        },
        {
          "address": "0x0414bb02c6b9eb781220dc207617bc6841fa463b",
          "topics": [
            "0x1b3d7edb2e9c0b0e7c525b20aaaef0f5940d2ed71663c7d39266ecafac728859",
            "0x0000000000000000000000000000000000000000000000000000000000000000",
            "0x0000000000000000000000005992fe461f81c8e0affa95b831e50e9b3854ba0e",
            "0xf315b9006c20913d6d8498bdf657e778d4ddf2c4000000000000000000000001"
          ],
          "data": "0x0000000000000000000000005992fe461f81c8e0affa95b831e50e9b3854ba0e0000000000000000000000000000000000000000000000000de0b6b3a7640000",
          "blockHash": "0x0455b1007b58bfa189b1137378d3541aa742067d6f5cd0534bcd8e9cf40608ad",
          "blockNumber": "0x18e177a4",
          "transactionHash": "0x2d4394e8d2caec0c15231bb8deb154ce93a51152dbdfc13ae68f1eb4af9f813f",
          "transactionIndex": "0x4",
          "logIndex": "0x8",
          "removed": false
        },
        {
          "address": "0x0414bb02c6b9eb781220dc207617bc6841fa463b",
          "topics": [
            "0xf01e0648b75d055c003bb115baaa99af91e34a86a5405eb8b96e451bcb1c79f0",
            "0x0000000000000000000000005992fe461f81c8e0affa95b831e50e9b3854ba0e",
            "0x000000000000000000000000f315b9006c20913d6d8498bdf657e778d4ddf2c4"
          ],
          "data": "0x0000000000000000000000000000000000000000000000000000000000000001",
          "blockHash": "0x0455b1007b58bfa189b1137378d3541aa742067d6f5cd0534bcd8e9cf40608ad",
          "blockNumber": "0x18e177a4",
          "transactionHash": "0x2d4394e8d2caec0c15231bb8deb154ce93a51152dbdfc13ae68f1eb4af9f813f",
          "transactionIndex": "0x4",
          "logIndex": "0x9",
          "removed": false
        }
      ],
      "logsBloom": "0x00004000000200000000000000000000000000000002000000000000000000200000000000000000000000000000000000000002000000000000000000000000000000000002000000000008000005000000000000000000000800000000000000000000020000000000000000000800000000000000000000000010000000000000000800400000000000000000000000000000000000000000000000004000000000000000000000000200000028000000000000000000040000000000000400008082000000000000000000000000000000000000000010000000100020000000000000000000000002800000000000000000000000000000000004000000",
      "type": "0x2",
      "transactionHash": "0x2d4394e8d2caec0c15231bb8deb154ce93a51152dbdfc13ae68f1eb4af9f813f",
      "transactionIndex": "0x4",
      "blockHash": "0x0455b1007b58bfa189b1137378d3541aa742067d6f5cd0534bcd8e9cf40608ad",
      "blockNumber": "0x18e177a4",
      "gasUsed": "0x134e8",
      "effectiveGasPrice": "0x989680",
      "from": "0x5992fe461f81c8e0affa95b831e50e9b3854ba0e",
      "to": "0x0414bb02c6b9eb781220dc207617bc6841fa463b",
      "contractAddress": null,
      "gasUsedForL1": "0x0",
      "l1BlockNumber": "0x1708d22",
      "timeboosted": false
    }
  ],
  "libraries": [],
  "pending": [],
  "returns": {},
  "timestamp": 1767434396875,
  "chain": 42161,
  "commit": null
}