{
  "transactions": [
    {
      "hash": "0x5a57a964d2785cb756b2fe612a5b0567d029de4bb84ecb8a6071a7277d613cda",
      "transactionType": "CALL",
      "contractName": null,
      "contractAddress": "0xa9b1a94d8ddba49193e50174d4f87ee108f5e4cd",
      "function": "approve(address,uint256)",
      "arguments": [
        "0x000000000022D473030F116dDEE9F6B43aC78BA3",
        "10000000000000000000"
      ],
      "transaction": {
        "from": "0x5992fe461f81c8e0affa95b831e50e9b3854ba0e",
        "to": "0xa9b1a94d8ddba49193e50174d4f87ee108f5e4cd",
        "gas": "0xeb14",
        "value": "0x0",
        "input": "0x095ea7b3000000000000000000000000000000000022d473030f116ddee9f6b43ac78ba30000000000000000000000000000000000000000000000008ac7230489e80000",
        "nonce": "0x49d",
        "chainId": "0xa4b1"
      },
      "additionalContracts": [],
      "isFixedGasLimit": false
    }
  ],
  "receipts": [
    {
      "status": "0x1",
      "cumulativeGasUsed": "0xb357",
      "logs": [
        {
          "address": "0xa9b1a94d8ddba49193e50174d4f87ee108f5e4cd",
          "topics": [
            "0x8c5be1e5ebec7d5bd14f71427d1e84f3dd0314c0f7b2291e5b200ac8c7c3b925",
            "0x0000000000000000000000005992fe461f81c8e0affa95b831e50e9b3854ba0e",
            "0x000000000000000000000000000000000022d473030f116ddee9f6b43ac78ba3"
          ],
          "data": "0x0000000000000000000000000000000000000000000000008ac7230489e80000",
          "blockHash": "0x69dcb12b88b238987e726a5ce442b8eedcb59bc45cd5d41f102b9e533e232bd1",
          "blockNumber": "0x18a84f3a",
          "transactionHash": "0x5a57a964d2785cb756b2fe612a5b0567d029de4bb84ecb8a6071a7277d613cda",
          "transactionIndex": "0x1",
          "logIndex": "0x0",
          "removed": false
        }
      ],
      "logsBloom": "0x00000000000000000000000000000000000000000000000000000000000000000000000000000000000000000000000000000000800000000000000000200000000000000002000000004000000000000000000000000800000000000000000000000000000000000000000000000000000000000000000000000000000000000000000800000000000000000000000000000000000000000000000000004000020000000000000000000000000000000000000000000000040000000000000000008000000000000000000000000000000000000000000000000000000000000010000000000000000002000000000000000000000000000000000000000000",
      "type": "0x2",
      "transactionHash": "0x5a57a964d2785cb756b2fe612a5b0567d029de4bb84ecb8a6071a7277d613cda",
      "transactionIndex": "0x1",
      "blockHash": "0x69dcb12b88b238987e726a5ce442b8eedcb59bc45cd5d41f102b9e533e232bd1",
      "blockNumber": "0x18a84f3a",
      "gasUsed": "0xb357",
      "effectiveGasPrice": "0x23f35e8",
      "from": "0x5992fe461f81c8e0affa95b831e50e9b3854ba0e",
      "to": "0xa9b1a94d8ddba49193e50174d4f87ee108f5e4cd",
      "contractAddress": null,
      "gasUsedForL1": "0x0",
      "l1BlockNumber": "0x16f5e00",
      "timeboosted": false
    }
  ],
  "libraries": [],
  "pending": [],
  "returns": {},
  "timestamp": 1766498494779,
  "chain": 42161,
  "commit": null
}