{
  "transactions": [
    {
      "hash": "0xfb846e833f9a13bb8968547bc4ea4b2857267158facb2b42cd6d98304e699397",
      "transactionType": "CALL",
      "contractName": null,
      "contractAddress": "0xc0a672740b2b2da1cc8fa4befafcaf4901e42a42",
      "function": "createPrediction(((address,uint96),(address,uint96),uint40,uint96,(address,uint96)[]))",
      "arguments": [
        "((0xa9b1a94d8ddBa49193e50174D4f87ee108F5e4cD, 1000000000000000000), (0xa9b1a94d8ddBa49193e50174D4f87ee108F5e4cD, 100), 1803499679, 0, [(0xa9b1a94d8ddBa49193e50174D4f87ee108F5e4cD, 1000000000000000000)])"
      ],
      "transaction": {
        "from": "0xf315b9006c20913d6d8498bdf657e778d4ddf2c4",
        "to": "0xc0a672740b2b2da1cc8fa4befafcaf4901e42a42",
        "gas": "0x2c37d",
        "value": "0x0",
        "input": "0xc19b13aa0000000000000000000000000000000000000000000000000000000000000020000000000000000000000000a9b1a94d8ddba49193e50174d4f87ee108f5e4cd0000000000000000000000000000000000000000000000000de0b6b3a7640000000000000000000000000000a9b1a94d8ddba49193e50174d4f87ee108f5e4cd0000000000000000000000000000000000000000000000000000000000000064000000000000000000000000000000000000000000000000000000006b7f389f000000000000000000000000000000000000000000000000000000000000000000000000000000000000000000000000000000000000000000000000000000e00000000000000000000000000000000000000000000000000000000000000001000000000000000000000000a9b1a94d8ddba49193e50174d4f87ee108f5e4cd0000000000000000000000000000000000000000000000000de0b6b3a7640000",
        "nonce": "0x100",
        "chainId": "0xa4b1"
      },
      "additionalContracts": [],
      "isFixedGasLimit": false
    }
  ],
  "receipts": [
    {
      "status": "0x1",
      "cumulativeGasUsed": "0x5a6dd",
      "logs": [
        {
          "address": "0xc0a672740b2b2da1cc8fa4befafcaf4901e42a42",
          "topics": [
            "0x49590a953e4f7ed634e3098ee5653ebc3623584f3677075fd182a1cdf75b1160",
            "0x000000000000000000000000f315b9006c20913d6d8498bdf657e778d4ddf2c4"
          ],
          "data": "0x000000000000000000000000000000000000000000000000000000006b7f389f",
          "blockHash": "0x68d299692195dda846b46b04de42da6d9cba13c01808033ca395d6c5d0b7974d",
          "blockNumber": "0x18e573ec",
          "transactionHash": "0xfb846e833f9a13bb8968547bc4ea4b2857267158facb2b42cd6d98304e699397",
          "transactionIndex": "0x4",
          "logIndex": "0x4",
          "removed": false
        }
      ],
      "logsBloom": "0x00000000000200000000000000080000000000000000000000000000000000000000000000000000000040000000000000000000000000000000000000000000000000000000010000000000000000000000000000000000000000000000000000000000000000000000000000000000000000000000000000000000000000000000000000400000800000000000000000000000000000000000000000000000000000000000000000000000000000000000000000000000000000000000000000000080000000000000200000000000000000000000000000000000000000000000000000000000001000000000000000000000000000000000000000000000",
      "type": "0x2",
      "transactionHash": "0xfb846e833f9a13bb8968547bc4ea4b2857267158facb2b42cd6d98304e699397",
      "transactionIndex": "0x4",
      "blockHash": "0x68d299692195dda846b46b04de42da6d9cba13c01808033ca395d6c5d0b7974d",
      "blockNumber": "0x18e573ec",
      "gasUsed": "0x21bce",
      "effectiveGasPrice": "0x989680",
      "from": "0xf315b9006c20913d6d8498bdf657e778d4ddf2c4",
      "to": "0xc0a672740b2b2da1cc8fa4befafcaf4901e42a42",
      "contractAddress": null,
      "gasUsedForL1": "0x0",
      "l1BlockNumber": "0x170a253",
      "timeboosted": false
    }
  ],
  "libraries": [],
  "pending": [],
  "returns": {},
  "timestamp": 1767499692164,
  "chain": 42161,
  "commit": null
}