{
  "transactions": [
    {
      "hash": "0x4bb8972a8eca1463c73edbb547129d6f491e800bf8aaa5ad5f9a6ff1b8c4d2a6",
      "transactionType": "CALL",
      "contractName": null,
      "contractAddress": "0xa9b1a94d8ddba49193e50174d4f87ee108f5e4cd",
      "function": "approve(address,uint256)",
      "arguments": [
        "0x000000000022D473030F116dDEE9F6B43aC78BA3",
        "115792089237316195423570985008687907853269984665640564039457584007913129639935"
      ],
      "transaction": {
        "from": "0x5992fe461f81c8e0affa95b831e50e9b3854ba0e",
        "to": "0xa9b1a94d8ddba49193e50174d4f87ee108f5e4cd",
        "gas": "0xecaa",
        "value": "0x0",
        "input": "0x095ea7b3000000000000000000000000000000000022d473030f116ddee9f6b43ac78ba3ffffffffffffffffffffffffffffffffffffffffffffffffffffffffffffffff",
        "nonce": "0x4b9",
        "chainId": "0xa4b1"
      },
      "additionalContracts": [],
      "isFixedGasLimit": false
    },
    {
      "hash": "0x50b8d31d3e6a4308019b34279ccb6432a57d50befe66256f70bb0072c20b8e3c",
      "transactionType": "CALL",
      "contractName": null,
      "contractAddress": "0xc0a672740b2b2da1cc8fa4befafcaf4901e42a42",
      "function": "voteWithPermit2(address,bool,((address,uint256),uint256,uint256),(address,uint256),bytes)",
      "arguments": [
        "0xf315B9006C20913D6D8498BDf657E778d4Ddf2c4",
        "true",
        "((0xa9b1a94d8ddBa49193e50174D4f87ee108F5e4cD, 1000000000000000000), 10, 4359431218)",
        "(0xC0A672740b2b2Da1CC8fA4BefaFcaF4901e42A42, 1000000000000000000)",
        "0x7392e6912c89aceb30e4ff6e91bf65dded347b3be26c0ec202f4f8887bd97fbe34537150d355317a4f90db0c0b470de726c4394b37a848ce4bbc4d3a2fdc157c1c"
      ],
      "transaction": {
        "from": "0x5992fe461f81c8e0affa95b831e50e9b3854ba0e",
        "to": "0xc0a672740b2b2da1cc8fa4befafcaf4901e42a42",
        "gas": "0x199bd",
        "value": "0x0",
        "input": "0x8debc55d000000000000000000000000f315b9006c20913d6d8498bdf657e778d4ddf2c40000000000000000000000000000000000000000000000000000000000000001000000000000000000000000a9b1a94d8ddba49193e50174d4f87ee108f5e4cd0000000000000000000000000000000000000000000000000de0b6b3a7640000000000000000000000000000000000000000000000000000000000000000000a0000000000000000000000000000000000000000000000000000000103d7a432000000000000000000000000c0a672740b2b2da1cc8fa4befafcaf4901e42a420000000000000000000000000000000000000000000000000de0b6b3a7640000000000000000000000000000000000000000000000000000000000000000012000000000000000000000000000000000000000000000000000000000000000417392e6912c89aceb30e4ff6e91bf65dded347b3be26c0ec202f4f8887bd97fbe34537150d355317a4f90db0c0b470de726c4394b37a848ce4bbc4d3a2fdc157c1c00000000000000000000000000000000000000000000000000000000000000",
        "nonce": "0x4ba",
        "chainId": "0xa4b1"
      },
      "additionalContracts": [],
      "isFixedGasLimit": false
    }
  ],
  "receipts": [
    {
      "status": "0x1",
      "cumulativeGasUsed": "0x51fe2",
      "logs": [
        {
          "address": "0xa9b1a94d8ddba49193e50174d4f87ee108f5e4cd",
          "topics": [
            "0x8c5be1e5ebec7d5bd14f71427d1e84f3dd0314c0f7b2291e5b200ac8c7c3b925",
            "0x0000000000000000000000005992fe461f81c8e0affa95b831e50e9b3854ba0e",
            "0x000000000000000000000000000000000022d473030f116ddee9f6b43ac78ba3"
          ],
          "data": "0xffffffffffffffffffffffffffffffffffffffffffffffffffffffffffffffff",
          "blockHash": "0x2c1bb096570a75f071abe97777e16054d94e9fcf03b45115252cbf834d686966",
          "blockNumber": "0x18e7b4ef",
          "transactionHash": "0x4bb8972a8eca1463c73edbb547129d6f491e800bf8aaa5ad5f9a6ff1b8c4d2a6",
          "transactionIndex": "0x4",
          "logIndex": "0x4",
          "removed": false
        }
      ],
      "logsBloom": "0x00000000000000000000000000000000000000000000000000000000000000000000000000000000000000000000000000000000800000000000000000200000000000000002000000004000000000000000000000000800000000000000000000000000000000000000000000000000000000000000000000000000000000000000000800000000000000000000000000000000000000000000000000004000020000000000000000000000000000000000000000000000040000000000000000008000000000000000000000000000000000000000000000000000000000000010000000000000000002000000000000000000000000000000000000000000",
      "type": "0x2",
      "transactionHash": "0x4bb8972a8eca1463c73edbb547129d6f491e800bf8aaa5ad5f9a6ff1b8c4d2a6",
      "transactionIndex": "0x4",
      "blockHash": "0x2c1bb096570a75f071abe97777e16054d94e9fcf03b45115252cbf834d686966",
      "blockNumber": "0x18e7b4ef",
      "gasUsed": "0xb48f",
      "effectiveGasPrice": "0x989680",
      "from": "0x5992fe461f81c8e0affa95b831e50e9b3854ba0e",
      "to": "0xa9b1a94d8ddba49193e50174d4f87ee108f5e4cd",
      "contractAddress": null,
      "gasUsedForL1": "0x0",
      "l1BlockNumber": "0x170ae4e",
      "timeboosted": false
    },
    {
      "status": "0x1",
      "cumulativeGasUsed": "0x152591",
      "logs": [
        {
          "address": "0xa9b1a94d8ddba49193e50174d4f87ee108f5e4cd",
          "topics": [
            "0xddf252ad1be2c89b69c2b068fc378daa952ba7f163c4a11628f55a4df523b3ef",
            "0x0000000000000000000000005992fe461f81c8e0affa95b831e50e9b3854ba0e",
            "0x000000000000000000000000c0a672740b2b2da1cc8fa4befafcaf4901e42a42"
          ],
          "data": "0x0000000000000000000000000000000000000000000000000de0b6b3a7640000",
          "blockHash": "0xb65d26e16ab88ac09666bf8d0575c6fe248906dca0076480f668f583818e84c4",
          "blockNumber": "0x18e7b4f3",
          "transactionHash": "0x50b8d31d3e6a4308019b34279ccb6432a57d50befe66256f70bb0072c20b8e3c",
          "transactionIndex": "0x7",
          "logIndex": "0x17",
          "removed": false
        },
        {
          "address": "0xc0a672740b2b2da1cc8fa4befafcaf4901e42a42",
          "topics": [
            "0x1b3d7edb2e9c0b0e7c525b20aaaef0f5940d2ed71663c7d39266ecafac728859",
            "0x0000000000000000000000000000000000000000000000000000000000000000",
            "0x0000000000000000000000005992fe461f81c8e0affa95b831e50e9b3854ba0e",
            "0xf315b9006c20913d6d8498bdf657e778d4ddf2c4000000000000000000000001"
          ],
          "data": "0x0000000000000000000000005992fe461f81c8e0affa95b831e50e9b3854ba0e0000000000000000000000000000000000000000000000000de0b6b3a7640000",
          "blockHash": "0xb65d26e16ab88ac09666bf8d0575c6fe248906dca0076480f668f583818e84c4",
          "blockNumber": "0x18e7b4f3",
          "transactionHash": "0x50b8d31d3e6a4308019b34279ccb6432a57d50befe66256f70bb0072c20b8e3c",
          "transactionIndex": "0x7",
          "logIndex": "0x18",
          "removed": false
        },
        {
          "address": "0xc0a672740b2b2da1cc8fa4befafcaf4901e42a42",
          "topics": [
            "0xf01e0648b75d055c003bb115baaa99af91e34a86a5405eb8b96e451bcb1c79f0",
            "0x0000000000000000000000005992fe461f81c8e0affa95b831e50e9b3854ba0e",
            "0x000000000000000000000000f315b9006c20913d6d8498bdf657e778d4ddf2c4"
          ],
          "data": "0x0000000000000000000000000000000000000000000000000000000000000001",
          "blockHash": "0xb65d26e16ab88ac09666bf8d0575c6fe248906dca0076480f668f583818e84c4",
          "blockNumber": "0x18e7b4f3",
          "transactionHash": "0x50b8d31d3e6a4308019b34279ccb6432a57d50befe66256f70bb0072c20b8e3c",
          "transactionIndex": "0x7",
          "logIndex": "0x19",
          "removed": false
        }
      ],
      "logsBloom": "0x00004000000200000000000000000000040000000002000000000000000000000000000000000000000040000000000000000002000000000000000000000000000000000002010000000008000004000000000000000000000800000000000000000000020000000000000000000800000000000000000000000010000000000000000800400000800000000000000000000080000002000000000000004000000000000000000000000000000020000000000000000000040000000000000400008082000000000000000000000000000000000000000010000000000020000000000000000000000002000000000000000000000000000000000004000000",
      "type": "0x2",
      "transactionHash": "0x50b8d31d3e6a4308019b34279ccb6432a57d50befe66256f70bb0072c20b8e3c",
      "transactionIndex": "0x7",
      "blockHash": "0xb65d26e16ab88ac09666bf8d0575c6fe248906dca0076480f668f583818e84c4",
      "blockNumber": "0x18e7b4f3",
      "gasUsed": "0x128a5",
      "effectiveGasPrice": "0x989680",
      "from": "0x5992fe461f81c8e0affa95b831e50e9b3854ba0e",
      "to": "0xc0a672740b2b2da1cc8fa4befafcaf4901e42a42",
      "contractAddress": null,
      "gasUsedForL1": "0x0",
      "l1BlockNumber": "0x170ae4e",
      "timeboosted": false
    }
  ],
  "libraries": [],
  "pending": [],
  "returns": {},
  "timestamp": 1767536589202,
  "chain": 42161,
  "commit": "84fadc7"
}