{
  "transactions": [
    {
      "hash": "0x940389d9404001fabf9ee87b50089d5b45223f2b5608f2d3186749959caffc9f",
      "transactionType": "CALL",
      "contractName": null,
      "contractAddress": "0x0414bb02c6b9eb781220dc207617bc6841fa463b",
      "function": "voteWithPermit2(address,bool,((address,uint256),uint256,uint256),(address,uint256),bytes)",
      "arguments": [
        "0xf315B9006C20913D6D8498BDf657E778d4Ddf2c4",
        "true",
        "((0xa9b1a94d8ddBa49193e50174D4f87ee108F5e4cD, 1000000000000000000), 2, 4359431218)",
        "(0x0414bB02C6B9EB781220Dc207617BC6841Fa463B, 1000000000000000000)",
        "0xf5fc35907b1c365bec9cb5d3a176dbafe958b882d2f0332a9bdb139d2998b81b5496aabfa73092877a7df1e58d28f67c644d2d30d2fd3fb3a1d1df9831b671141b"
      ],
      "transaction": {
        "from": "0x5992fe461f81c8e0affa95b831e50e9b3854ba0e",
        "to": "0x0414bb02c6b9eb781220dc207617bc6841fa463b",
        "gas": "0x19622",
        "value": "0x0",
        "input": "0x8debc55d000000000000000000000000f315b9006c20913d6d8498bdf657e778d4ddf2c40000000000000000000000000000000000000000000000000000000000000001000000000000000000000000a9b1a94d8ddba49193e50174d4f87ee108f5e4cd0000000000000000000000000000000000000000000000000de0b6b3a764000000000000000000000000000000000000000000000000000000000000000000020000000000000000000000000000000000000000000000000000000103d7a4320000000000000000000000000414bb02c6b9eb781220dc207617bc6841fa463b0000000000000000000000000000000000000000000000000de0b6b3a764000000000000000000000000000000000000000000000000000000000000000001200000000000000000000000000000000000000000000000000000000000000041f5fc35907b1c365bec9cb5d3a176dbafe958b882d2f0332a9bdb139d2998b81b5496aabfa73092877a7df1e58d28f67c644d2d30d2fd3fb3a1d1df9831b671141b00000000000000000000000000000000000000000000000000000000000000",
        "nonce": "0x4aa",
        "chainId": "0xa4b1"
      },
      "additionalContracts": [],
      "isFixedGasLimit": false
    }
  ],
  "receipts": [
    {
      "status": "0x1",
      "cumulativeGasUsed": "0x1ba5c",
      "logs": [
        {
          "address": "0xa9b1a94d8ddba49193e50174d4f87ee108f5e4cd",
          "topics": [
            "0xddf252ad1be2c89b69c2b068fc378daa952ba7f163c4a11628f55a4df523b3ef",
            "0x0000000000000000000000005992fe461f81c8e0affa95b831e50e9b3854ba0e",
            "0x0000000000000000000000000414bb02c6b9eb781220dc207617bc6841fa463b"
          ],
          "data": "0x0000000000000000000000000000000000000000000000000de0b6b3a7640000",
          "blockHash": "0xd93e9bad9357fa20e88244b095898eb39a0470fe2e91cc3adf1c999ae8ab657b",
          "blockNumber": "0x18e16b7b",
          "transactionHash": "0x940389d9404001fabf9ee87b50089d5b45223f2b5608f2d3186749959caffc9f",
          "transactionIndex": "0x2",
          "logIndex": "0x1",
          "removed": false
        },
        {
          "address": "0x0414bb02c6b9eb781220dc207617bc6841fa463b",
          "topics": [
            "0x1b3d7edb2e9c0b0e7c525b20aaaef0f5940d2ed71663c7d39266ecafac728859",
            "0x0000000000000000000000000000000000000000000000000000000000000000",
            "0x0000000000000000000000005992fe461f81c8e0affa95b831e50e9b3854ba0e",
            "0xf315b9006c20913d6d8498bdf657e778d4ddf2c4000000000000000000000001"
          ],
          "data": "0x0000000000000000000000005992fe461f81c8e0affa95b831e50e9b3854ba0e0000000000000000000000000000000000000000000000000de0b6b3a7640000",
          "blockHash": "0xd93e9bad9357fa20e88244b095898eb39a0470fe2e91cc3adf1c999ae8ab657b",
          "blockNumber": "0x18e16b7b",
          "transactionHash": "0x940389d9404001fabf9ee87b50089d5b45223f2b5608f2d3186749959caffc9f",
          "transactionIndex": "0x2",
          "logIndex": "0x2",
          "removed": false
        },
        {
          "address": "0x0414bb02c6b9eb781220dc207617bc6841fa463b",
          "topics": [
            "0xf01e0648b75d055c003bb115baaa99af91e34a86a5405eb8b96e451bcb1c79f0",
            "0x0000000000000000000000005992fe461f81c8e0affa95b831e50e9b3854ba0e",
            "0x000000000000000000000000f315b9006c20913d6d8498bdf657e778d4ddf2c4"
          ],
          "data": "0x0000000000000000000000000000000000000000000000000000000000000001",
          "blockHash": "0xd93e9bad9357fa20e88244b095898eb39a0470fe2e91cc3adf1c999ae8ab657b",
          "blockNumber": "0x18e16b7b",
          "transactionHash": "0x940389d9404001fabf9ee87b50089d5b45223f2b5608f2d3186749959caffc9f",
          "transactionIndex": "0x2",
          "logIndex": "0x3",
          "removed": false
        }
      ],
      "logsBloom": "0x00004000000200000000000000000000000000000002000000000000000000200000000000000000000000000000000000000002000000000000000000000000000000000002000000000008000005000000000000000000000800000000000000000000020000000000000000000800000000000000000000000010000000000000000800400000000000000000000000000000000000000000000000004000000000000000000000000200000028000000000000000000040000000000000400008082000000000000000000000000000000000000000010000000100020000000000000000000000002800000000000000000000000000000000004000000",
      "type": "0x2",
      "transactionHash": "0x940389d9404001fabf9ee87b50089d5b45223f2b5608f2d3186749959caffc9f",
      "transactionIndex": "0x2",
      "blockHash": "0xd93e9bad9357fa20e88244b095898eb39a0470fe2e91cc3adf1c999ae8ab657b",
      "blockNumber": "0x18e16b7b",
      "gasUsed": "0x134e8",
      "effectiveGasPrice": "0x989680",
      "from": "0x5992fe461f81c8e0affa95b831e50e9b3854ba0e",
      "to": "0x0414bb02c6b9eb781220dc207617bc6841fa463b",
      "contractAddress": null,
      "gasUsedForL1": "0x0",
      "l1BlockNumber": "0x1708ce1",
      "timeboosted": false
    }
  ],
  "libraries": [],
  "pending": [],
  "returns": {},
  "timestamp": 1767433619741,
  "chain": 42161,
  "commit": null
}