{
  "transactions": [
    {
      "hash": "0x2beed3ae1074d74c2c269c890f43d5f6037ee7d7dff1cd4af783a3d103802cdf",
      "transactionType": "CALL",
      "contractName": null,
      "contractAddress": "0xc0a672740b2b2da1cc8fa4befafcaf4901e42a42",
      "function": "voteWithPermit2(address,bool,((address,uint256),uint256,uint256),(address,uint256),bytes)",
      "arguments": [
        "0xf315B9006C20913D6D8498BDf657E778d4Ddf2c4",
        "true",
        "((0xa9b1a94d8ddBa49193e50174D4f87ee108F5e4cD, 1000000000000000000), 4, 4359431218)",
        "(0xC0A672740b2b2Da1CC8fA4BefaFcaF4901e42A42, 1000000000000000000)",
        "0xb53449f7de3c759b1078c45ee976ffb75a9e254880e709c58709ccc4b9459ae86b7836b0f9b4cedad984147b248efd955f520facc5c9deed7e79a927e5347e281c"
      ],
      "transaction": {
        "from": "0x5992fe461f81c8e0affa95b831e50e9b3854ba0e",
        "to": "0xc0a672740b2b2da1cc8fa4befafcaf4901e42a42",
        "gas": "0x29bac",
        "value": "0x0",
        "input": "0x8debc55d000000000000000000000000f315b9006c20913d6d8498bdf657e778d4ddf2c40000000000000000000000000000000000000000000000000000000000000001000000000000000000000000a9b1a94d8ddba49193e50174d4f87ee108f5e4cd0000000000000000000000000000000000000000000000000de0b6b3a764000000000000000000000000000000000000000000000000000000000000000000040000000000000000000000000000000000000000000000000000000103d7a432000000000000000000000000c0a672740b2b2da1cc8fa4befafcaf4901e42a420000000000000000000000000000000000000000000000000de0b6b3a764000000000000000000000000000000000000000000000000000000000000000001200000000000000000000000000000000000000000000000000000000000000041b53449f7de3c759b1078c45ee976ffb75a9e254880e709c58709ccc4b9459ae86b7836b0f9b4cedad984147b248efd955f520facc5c9deed7e79a927e5347e281c00000000000000000000000000000000000000000000000000000000000000",
        "nonce": "0x4b3",
        "chainId": "0xa4b1"
      },
      "additionalContracts": [],
      "isFixedGasLimit": false
    }
  ],
  "receipts": [
    {
      "status": "0x1",
      "cumulativeGasUsed": "0x1fd4c",
      "logs": [
        {
          "address": "0xa9b1a94d8ddba49193e50174d4f87ee108f5e4cd",
          "topics": [
            "0xddf252ad1be2c89b69c2b068fc378daa952ba7f163c4a11628f55a4df523b3ef",
            "0x0000000000000000000000005992fe461f81c8e0affa95b831e50e9b3854ba0e",
            "0x000000000000000000000000c0a672740b2b2da1cc8fa4befafcaf4901e42a42"
          ],
          "data": "0x0000000000000000000000000000000000000000000000000de0b6b3a7640000",
          "blockHash": "0x42d526a6ce3ce781b6bcf4380378f7d500610de5c38672889eb745e99566b694",
          "blockNumber": "0x18e57743",
          "transactionHash": "0x2beed3ae1074d74c2c269c890f43d5f6037ee7d7dff1cd4af783a3d103802cdf",
          "transactionIndex": "0x1",
          "logIndex": "0x0",
          "removed": false
        },
        {
          "address": "0xc0a672740b2b2da1cc8fa4befafcaf4901e42a42",
          "topics": [
            "0x1b3d7edb2e9c0b0e7c525b20aaaef0f5940d2ed71663c7d39266ecafac728859",
            "0x0000000000000000000000000000000000000000000000000000000000000000",
            "0x0000000000000000000000005992fe461f81c8e0affa95b831e50e9b3854ba0e",
            "0xf315b9006c20913d6d8498bdf657e778d4ddf2c4000000000000000000000001"
          ],
          "data": "0x0000000000000000000000005992fe461f81c8e0affa95b831e50e9b3854ba0e0000000000000000000000000000000000000000000000000de0b6b3a7640000",
          "blockHash": "0x42d526a6ce3ce781b6bcf4380378f7d500610de5c38672889eb745e99566b694",
          "blockNumber": "0x18e57743",
          "transactionHash": "0x2beed3ae1074d74c2c269c890f43d5f6037ee7d7dff1cd4af783a3d103802cdf",
          "transactionIndex": "0x1",
          "logIndex": "0x1",
          "removed": false
        },
        {
          "address": "0xc0a672740b2b2da1cc8fa4befafcaf4901e42a42",
          "topics": [
            "0xf01e0648b75d055c003bb115baaa99af91e34a86a5405eb8b96e451bcb1c79f0",
            "0x0000000000000000000000005992fe461f81c8e0affa95b831e50e9b3854ba0e",
            "0x000000000000000000000000f315b9006c20913d6d8498bdf657e778d4ddf2c4"
          ],
          "data": "0x0000000000000000000000000000000000000000000000000000000000000001",
          "blockHash": "0x42d526a6ce3ce781b6bcf4380378f7d500610de5c38672889eb745e99566b694",
          "blockNumber": "0x18e57743",
          "transactionHash": "0x2beed3ae1074d74c2c269c890f43d5f6037ee7d7dff1cd4af783a3d103802cdf",
          "transactionIndex": "0x1",
          "logIndex": "0x2",
          "removed": false
        }
      ],
      "logsBloom": "0x00004000000200000000000000000000040000000002000000000000000000000000000000000000000040000000000000000002000000000000000000000000000000000002010000000008000004000000000000000000000800000000000000000000020000000000000000000800000000000000000000000010000000000000000800400000800000000000000000000080000002000000000000004000000000000000000000000000000020000000000000000000040000000000000400008082000000000000000000000000000000000000000010000000000020000000000000000000000002000000000000000000000000000000000004000000",
      "type": "0x2",
      "transactionHash": "0x2beed3ae1074d74c2c269c890f43d5f6037ee7d7dff1cd4af783a3d103802cdf",
      "transactionIndex": "0x1",
      "blockHash": "0x42d526a6ce3ce781b6bcf4380378f7d500610de5c38672889eb745e99566b694",
      "blockNumber": "0x18e57743",
      "gasUsed": "0x1fd4c",
      "effectiveGasPrice": "0x989680",
      "from": "0x5992fe461f81c8e0affa95b831e50e9b3854ba0e",
      "to": "0xc0a672740b2b2da1cc8fa4befafcaf4901e42a42",
      "contractAddress": null,
      "gasUsedForL1": "0x0",
      "l1BlockNumber": "0x170a266",
      "timeboosted": false
    }
  ],
  "libraries": [],
  "pending": [],
  "returns": {},
  "timestamp": 1767499906525,
  "chain": 42161,
  "commit": null
}